{
	"data": {
		"bytecode": {
			"linkReferences": {},
			"object": "608060405234801561001057600080fd5b50610dc4806100206000396000f3fe608060405234801561001057600080fd5b506004361061007d5760003560e01c8063816272371161005b57806381627237146100ed578063a3e12bc014610109578063a87430ba14610125578063b6558498146101565761007d565b806307973ccf1461008257806318b8275a146100a057806364148056146100bc575b600080fd5b61008a610174565b6040516100979190610568565b60405180910390f35b6100ba60048036038101906100b591906106dd565b61017a565b005b6100d660048036038101906100d191906107b0565b61026a565b6040516100e492919061086f565b60405180910390f35b6101076004803603810190610102919061089f565b610333565b005b610123600480360381019061011e919061090e565b6103a8565b005b61013f600480360381019061013a919061096a565b61047d565b60405161014d9291906109a6565b60405180910390f35b61015e610549565b60405161016b9190610568565b60405180910390f35b60015481565b6000339050806000808373ffffffffffffffffffffffffffffffffffffffff1673ffffffffffffffffffffffffffffffffffffffff16815260200190815260200160002060000160006101000a81548173ffffffffffffffffffffffffffffffffffffffff021916908373ffffffffffffffffffffffffffffffffffffffff160217905550816000808373ffffffffffffffffffffffffffffffffffffffff1673ffffffffffffffffffffffffffffffffffffffff168152602001908152602001600020600101908161024d9190610be2565b506001600081548092919061026190610ce3565b91905055505050565b6002602052816000526040600020818154811061028657600080fd5b9060005260206000209060020201600091509150508060000154908060010180546102b090610a05565b80601f01602080910402602001604051908101604052809291908181526020018280546102dc90610a05565b80156103295780601f106102fe57610100808354040283529160200191610329565b820191906000526020600020905b81548152906001019060200180831161030c57829003601f168201915b5050505050905082565b80600260008573ffffffffffffffffffffffffffffffffffffffff1673ffffffffffffffffffffffffffffffffffffffff168152602001908152602001600020838154811061038557610384610d2b565b5b906000526020600020906002020160010190816103a29190610be2565b50505050565b600060016003546103b99190610d5a565b905060006040518060400160405280838152602001848152509050600260008573ffffffffffffffffffffffffffffffffffffffff1673ffffffffffffffffffffffffffffffffffffffff16815260200190815260200160002081908060018154018082558091505060019003906000526020600020906002020160009091909190915060008201518160000155602082015181600101908161045c9190610be2565b5050506003600081548092919061047290610ce3565b919050555050505050565b60006020528060005260406000206000915090508060000160009054906101000a900473ffffffffffffffffffffffffffffffffffffffff16908060010180546104c690610a05565b80601f01602080910402602001604051908101604052809291908181526020018280546104f290610a05565b801561053f5780601f106105145761010080835404028352916020019161053f565b820191906000526020600020905b81548152906001019060200180831161052257829003601f168201915b5050505050905082565b60035481565b6000819050919050565b6105628161054f565b82525050565b600060208201905061057d6000830184610559565b92915050565b6000604051905090565b600080fd5b600080fd5b600080fd5b600080fd5b6000601f19601f8301169050919050565b7f4e487b7100000000000000000000000000000000000000000000000000000000600052604160045260246000fd5b6105ea826105a1565b810181811067ffffffffffffffff82111715610609576106086105b2565b5b80604052505050565b600061061c610583565b905061062882826105e1565b919050565b600067ffffffffffffffff821115610648576106476105b2565b5b610651826105a1565b9050602081019050919050565b82818337600083830152505050565b600061068061067b8461062d565b610612565b90508281526020810184848401111561069c5761069b61059c565b5b6106a784828561065e565b509392505050565b600082601f8301126106c4576106c3610597565b5b81356106d484826020860161066d565b91505092915050565b6000602082840312156106f3576106f261058d565b5b600082013567ffffffffffffffff81111561071157610710610592565b5b61071d848285016106af565b91505092915050565b600073ffffffffffffffffffffffffffffffffffffffff82169050919050565b600061075182610726565b9050919050565b61076181610746565b811461076c57600080fd5b50565b60008135905061077e81610758565b92915050565b61078d8161054f565b811461079857600080fd5b50565b6000813590506107aa81610784565b92915050565b600080604083850312156107c7576107c661058d565b5b60006107d58582860161076f565b92505060206107e68582860161079b565b9150509250929050565b600081519050919050565b600082825260208201905092915050565b60005b8381101561082a57808201518184015260208101905061080f565b60008484015250505050565b6000610841826107f0565b61084b81856107fb565b935061085b81856020860161080c565b610864816105a1565b840191505092915050565b60006040820190506108846000830185610559565b81810360208301526108968184610836565b90509392505050565b6000806000606084860312156108b8576108b761058d565b5b60006108c68682870161076f565b93505060206108d78682870161079b565b925050604084013567ffffffffffffffff8111156108f8576108f7610592565b5b610904868287016106af565b9150509250925092565b600080604083850312156109255761092461058d565b5b60006109338582860161076f565b925050602083013567ffffffffffffffff81111561095457610953610592565b5b610960858286016106af565b9150509250929050565b6000602082840312156109805761097f61058d565b5b600061098e8482850161076f565b91505092915050565b6109a081610746565b82525050565b60006040820190506109bb6000830185610997565b81810360208301526109cd8184610836565b90509392505050565b7f4e487b7100000000000000000000000000000000000000000000000000000000600052602260045260246000fd5b60006002820490506001821680610a1d57607f821691505b602082108103610a3057610a2f6109d6565b5b50919050565b60008190508160005260206000209050919050565b60006020601f8301049050919050565b600082821b905092915050565b600060088302610a987fffffffffffffffffffffffffffffffffffffffffffffffffffffffffffffffff82610a5b565b610aa28683610a5b565b95508019841693508086168417925050509392505050565b6000819050919050565b6000610adf610ada610ad58461054f565b610aba565b61054f565b9050919050565b6000819050919050565b610af983610ac4565b610b0d610b0582610ae6565b848454610a68565b825550505050565b600090565b610b22610b15565b610b2d818484610af0565b505050565b5b81811015610b5157610b46600082610b1a565b600181019050610b33565b5050565b601f821115610b9657610b6781610a36565b610b7084610a4b565b81016020851015610b7f578190505b610b93610b8b85610a4b565b830182610b32565b50505b505050565b600082821c905092915050565b6000610bb960001984600802610b9b565b1980831691505092915050565b6000610bd28383610ba8565b9150826002028217905092915050565b610beb826107f0565b67ffffffffffffffff811115610c0457610c036105b2565b5b610c0e8254610a05565b610c19828285610b55565b600060209050601f831160018114610c4c5760008415610c3a578287015190505b610c448582610bc6565b865550610cac565b601f198416610c5a86610a36565b60005b82811015610c8257848901518255600182019150602085019450602081019050610c5d565b86831015610c9f5784890151610c9b601f891682610ba8565b8355505b6001600288020188555050505b505050505050565b7f4e487b7100000000000000000000000000000000000000000000000000000000600052601160045260246000fd5b6000610cee8261054f565b91507fffffffffffffffffffffffffffffffffffffffffffffffffffffffffffffffff8203610d2057610d1f610cb4565b5b600182019050919050565b7f4e487b7100000000000000000000000000000000000000000000000000000000600052603260045260246000fd5b6000610d658261054f565b9150610d708361054f565b9250828201905080821115610d8857610d87610cb4565b5b9291505056fea264697066735822122025054b74745fafa41976867c3666dadb4834d0e90cee3370df8aa8ad7f439f9864736f6c63430008120033",
			"opcodes": "PUSH1 0x80 PUSH1 0x40 MSTORE CALLVALUE DUP1 ISZERO PUSH2 0x10 JUMPI PUSH1 0x0 DUP1 REVERT JUMPDEST POP PUSH2 0xDC4 DUP1 PUSH2 0x20 PUSH1 0x0 CODECOPY PUSH1 0x0 RETURN INVALID PUSH1 0x80 PUSH1 0x40 MSTORE CALLVALUE DUP1 ISZERO PUSH2 0x10 JUMPI PUSH1 0x0 DUP1 REVERT JUMPDEST POP PUSH1 0x4 CALLDATASIZE LT PUSH2 0x7D JUMPI PUSH1 0x0 CALLDATALOAD PUSH1 0xE0 SHR DUP1 PUSH4 0x81627237 GT PUSH2 0x5B JUMPI DUP1 PUSH4 0x81627237 EQ PUSH2 0xED JUMPI DUP1 PUSH4 0xA3E12BC0 EQ PUSH2 0x109 JUMPI DUP1 PUSH4 0xA87430BA EQ PUSH2 0x125 JUMPI DUP1 PUSH4 0xB6558498 EQ PUSH2 0x156 JUMPI PUSH2 0x7D JUMP JUMPDEST DUP1 PUSH4 0x7973CCF EQ PUSH2 0x82 JUMPI DUP1 PUSH4 0x18B8275A EQ PUSH2 0xA0 JUMPI DUP1 PUSH4 0x64148056 EQ PUSH2 0xBC JUMPI JUMPDEST PUSH1 0x0 DUP1 REVERT JUMPDEST PUSH2 0x8A PUSH2 0x174 JUMP JUMPDEST PUSH1 0x40 MLOAD PUSH2 0x97 SWAP2 SWAP1 PUSH2 0x568 JUMP JUMPDEST PUSH1 0x40 MLOAD DUP1 SWAP2 SUB SWAP1 RETURN JUMPDEST PUSH2 0xBA PUSH1 0x4 DUP1 CALLDATASIZE SUB DUP2 ADD SWAP1 PUSH2 0xB5 SWAP2 SWAP1 PUSH2 0x6DD JUMP JUMPDEST PUSH2 0x17A JUMP JUMPDEST STOP JUMPDEST PUSH2 0xD6 PUSH1 0x4 DUP1 CALLDATASIZE SUB DUP2 ADD SWAP1 PUSH2 0xD1 SWAP2 SWAP1 PUSH2 0x7B0 JUMP JUMPDEST PUSH2 0x26A JUMP JUMPDEST PUSH1 0x40 MLOAD PUSH2 0xE4 SWAP3 SWAP2 SWAP1 PUSH2 0x86F JUMP JUMPDEST PUSH1 0x40 MLOAD DUP1 SWAP2 SUB SWAP1 RETURN JUMPDEST PUSH2 0x107 PUSH1 0x4 DUP1 CALLDATASIZE SUB DUP2 ADD SWAP1 PUSH2 0x102 SWAP2 SWAP1 PUSH2 0x89F JUMP JUMPDEST PUSH2 0x333 JUMP JUMPDEST STOP JUMPDEST PUSH2 0x123 PUSH1 0x4 DUP1 CALLDATASIZE SUB DUP2 ADD SWAP1 PUSH2 0x11E SWAP2 SWAP1 PUSH2 0x90E JUMP JUMPDEST PUSH2 0x3A8 JUMP JUMPDEST STOP JUMPDEST PUSH2 0x13F PUSH1 0x4 DUP1 CALLDATASIZE SUB DUP2 ADD SWAP1 PUSH2 0x13A SWAP2 SWAP1 PUSH2 0x96A JUMP JUMPDEST PUSH2 0x47D JUMP JUMPDEST PUSH1 0x40 MLOAD PUSH2 0x14D SWAP3 SWAP2 SWAP1 PUSH2 0x9A6 JUMP JUMPDEST PUSH1 0x40 MLOAD DUP1 SWAP2 SUB SWAP1 RETURN JUMPDEST PUSH2 0x15E PUSH2 0x549 JUMP JUMPDEST PUSH1 0x40 MLOAD PUSH2 0x16B SWAP2 SWAP1 PUSH2 0x568 JUMP JUMPDEST PUSH1 0x40 MLOAD DUP1 SWAP2 SUB SWAP1 RETURN JUMPDEST PUSH1 0x1 SLOAD DUP2 JUMP JUMPDEST PUSH1 0x0 CALLER SWAP1 POP DUP1 PUSH1 0x0 DUP1 DUP4 PUSH20 0xFFFFFFFFFFFFFFFFFFFFFFFFFFFFFFFFFFFFFFFF AND PUSH20 0xFFFFFFFFFFFFFFFFFFFFFFFFFFFFFFFFFFFFFFFF AND DUP2 MSTORE PUSH1 0x20 ADD SWAP1 DUP2 MSTORE PUSH1 0x20 ADD PUSH1 0x0 KECCAK256 PUSH1 0x0 ADD PUSH1 0x0 PUSH2 0x100 EXP DUP2 SLOAD DUP2 PUSH20 0xFFFFFFFFFFFFFFFFFFFFFFFFFFFFFFFFFFFFFFFF MUL NOT AND SWAP1 DUP4 PUSH20 0xFFFFFFFFFFFFFFFFFFFFFFFFFFFFFFFFFFFFFFFF AND MUL OR SWAP1 SSTORE POP DUP2 PUSH1 0x0 DUP1 DUP4 PUSH20 0xFFFFFFFFFFFFFFFFFFFFFFFFFFFFFFFFFFFFFFFF AND PUSH20 0xFFFFFFFFFFFFFFFFFFFFFFFFFFFFFFFFFFFFFFFF AND DUP2 MSTORE PUSH1 0x20 ADD SWAP1 DUP2 MSTORE PUSH1 0x20 ADD PUSH1 0x0 KECCAK256 PUSH1 0x1 ADD SWAP1 DUP2 PUSH2 0x24D SWAP2 SWAP1 PUSH2 0xBE2 JUMP JUMPDEST POP PUSH1 0x1 PUSH1 0x0 DUP2 SLOAD DUP1 SWAP3 SWAP2 SWAP1 PUSH2 0x261 SWAP1 PUSH2 0xCE3 JUMP JUMPDEST SWAP2 SWAP1 POP SSTORE POP POP POP JUMP JUMPDEST PUSH1 0x2 PUSH1 0x20 MSTORE DUP2 PUSH1 0x0 MSTORE PUSH1 0x40 PUSH1 0x0 KECCAK256 DUP2 DUP2 SLOAD DUP2 LT PUSH2 0x286 JUMPI PUSH1 0x0 DUP1 REVERT JUMPDEST SWAP1 PUSH1 0x0 MSTORE PUSH1 0x20 PUSH1 0x0 KECCAK256 SWAP1 PUSH1 0x2 MUL ADD PUSH1 0x0 SWAP2 POP SWAP2 POP POP DUP1 PUSH1 0x0 ADD SLOAD SWAP1 DUP1 PUSH1 0x1 ADD DUP1 SLOAD PUSH2 0x2B0 SWAP1 PUSH2 0xA05 JUMP JUMPDEST DUP1 PUSH1 0x1F ADD PUSH1 0x20 DUP1 SWAP2 DIV MUL PUSH1 0x20 ADD PUSH1 0x40 MLOAD SWAP1 DUP2 ADD PUSH1 0x40 MSTORE DUP1 SWAP3 SWAP2 SWAP1 DUP2 DUP2 MSTORE PUSH1 0x20 ADD DUP3 DUP1 SLOAD PUSH2 0x2DC SWAP1 PUSH2 0xA05 JUMP JUMPDEST DUP1 ISZERO PUSH2 0x329 JUMPI DUP1 PUSH1 0x1F LT PUSH2 0x2FE JUMPI PUSH2 0x100 DUP1 DUP4 SLOAD DIV MUL DUP4 MSTORE SWAP2 PUSH1 0x20 ADD SWAP2 PUSH2 0x329 JUMP JUMPDEST DUP3 ADD SWAP2 SWAP1 PUSH1 0x0 MSTORE PUSH1 0x20 PUSH1 0x0 KECCAK256 SWAP1 JUMPDEST DUP2 SLOAD DUP2 MSTORE SWAP1 PUSH1 0x1 ADD SWAP1 PUSH1 0x20 ADD DUP1 DUP4 GT PUSH2 0x30C JUMPI DUP3 SWAP1 SUB PUSH1 0x1F AND DUP3 ADD SWAP2 JUMPDEST POP POP POP POP POP SWAP1 POP DUP3 JUMP JUMPDEST DUP1 PUSH1 0x2 PUSH1 0x0 DUP6 PUSH20 0xFFFFFFFFFFFFFFFFFFFFFFFFFFFFFFFFFFFFFFFF AND PUSH20 0xFFFFFFFFFFFFFFFFFFFFFFFFFFFFFFFFFFFFFFFF AND DUP2 MSTORE PUSH1 0x20 ADD SWAP1 DUP2 MSTORE PUSH1 0x20 ADD PUSH1 0x0 KECCAK256 DUP4 DUP2 SLOAD DUP2 LT PUSH2 0x385 JUMPI PUSH2 0x384 PUSH2 0xD2B JUMP JUMPDEST JUMPDEST SWAP1 PUSH1 0x0 MSTORE PUSH1 0x20 PUSH1 0x0 KECCAK256 SWAP1 PUSH1 0x2 MUL ADD PUSH1 0x1 ADD SWAP1 DUP2 PUSH2 0x3A2 SWAP2 SWAP1 PUSH2 0xBE2 JUMP JUMPDEST POP POP POP POP JUMP JUMPDEST PUSH1 0x0 PUSH1 0x1 PUSH1 0x3 SLOAD PUSH2 0x3B9 SWAP2 SWAP1 PUSH2 0xD5A JUMP JUMPDEST SWAP1 POP PUSH1 0x0 PUSH1 0x40 MLOAD DUP1 PUSH1 0x40 ADD PUSH1 0x40 MSTORE DUP1 DUP4 DUP2 MSTORE PUSH1 0x20 ADD DUP5 DUP2 MSTORE POP SWAP1 POP PUSH1 0x2 PUSH1 0x0 DUP6 PUSH20 0xFFFFFFFFFFFFFFFFFFFFFFFFFFFFFFFFFFFFFFFF AND PUSH20 0xFFFFFFFFFFFFFFFFFFFFFFFFFFFFFFFFFFFFFFFF AND DUP2 MSTORE PUSH1 0x20 ADD SWAP1 DUP2 MSTORE PUSH1 0x20 ADD PUSH1 0x0 KECCAK256 DUP2 SWAP1 DUP1 PUSH1 0x1 DUP2 SLOAD ADD DUP1 DUP3 SSTORE DUP1 SWAP2 POP POP PUSH1 0x1 SWAP1 SUB SWAP1 PUSH1 0x0 MSTORE PUSH1 0x20 PUSH1 0x0 KECCAK256 SWAP1 PUSH1 0x2 MUL ADD PUSH1 0x0 SWAP1 SWAP2 SWAP1 SWAP2 SWAP1 SWAP2 POP PUSH1 0x0 DUP3 ADD MLOAD DUP2 PUSH1 0x0 ADD SSTORE PUSH1 0x20 DUP3 ADD MLOAD DUP2 PUSH1 0x1 ADD SWAP1 DUP2 PUSH2 0x45C SWAP2 SWAP1 PUSH2 0xBE2 JUMP JUMPDEST POP POP POP PUSH1 0x3 PUSH1 0x0 DUP2 SLOAD DUP1 SWAP3 SWAP2 SWAP1 PUSH2 0x472 SWAP1 PUSH2 0xCE3 JUMP JUMPDEST SWAP2 SWAP1 POP SSTORE POP POP POP POP POP JUMP JUMPDEST PUSH1 0x0 PUSH1 0x20 MSTORE DUP1 PUSH1 0x0 MSTORE PUSH1 0x40 PUSH1 0x0 KECCAK256 PUSH1 0x0 SWAP2 POP SWAP1 POP DUP1 PUSH1 0x0 ADD PUSH1 0x0 SWAP1 SLOAD SWAP1 PUSH2 0x100 EXP SWAP1 DIV PUSH20 0xFFFFFFFFFFFFFFFFFFFFFFFFFFFFFFFFFFFFFFFF AND SWAP1 DUP1 PUSH1 0x1 ADD DUP1 SLOAD PUSH2 0x4C6 SWAP1 PUSH2 0xA05 JUMP JUMPDEST DUP1 PUSH1 0x1F ADD PUSH1 0x20 DUP1 SWAP2 DIV MUL PUSH1 0x20 ADD PUSH1 0x40 MLOAD SWAP1 DUP2 ADD PUSH1 0x40 MSTORE DUP1 SWAP3 SWAP2 SWAP1 DUP2 DUP2 MSTORE PUSH1 0x20 ADD DUP3 DUP1 SLOAD PUSH2 0x4F2 SWAP1 PUSH2 0xA05 JUMP JUMPDEST DUP1 ISZERO PUSH2 0x53F JUMPI DUP1 PUSH1 0x1F LT PUSH2 0x514 JUMPI PUSH2 0x100 DUP1 DUP4 SLOAD DIV MUL DUP4 MSTORE SWAP2 PUSH1 0x20 ADD SWAP2 PUSH2 0x53F JUMP JUMPDEST DUP3 ADD SWAP2 SWAP1 PUSH1 0x0 MSTORE PUSH1 0x20 PUSH1 0x0 KECCAK256 SWAP1 JUMPDEST DUP2 SLOAD DUP2 MSTORE SWAP1 PUSH1 0x1 ADD SWAP1 PUSH1 0x20 ADD DUP1 DUP4 GT PUSH2 0x522 JUMPI DUP3 SWAP1 SUB PUSH1 0x1F AND DUP3 ADD SWAP2 JUMPDEST POP POP POP POP POP SWAP1 POP DUP3 JUMP JUMPDEST PUSH1 0x3 SLOAD DUP2 JUMP JUMPDEST PUSH1 0x0 DUP2 SWAP1 POP SWAP2 SWAP1 POP JUMP JUMPDEST PUSH2 0x562 DUP2 PUSH2 0x54F JUMP JUMPDEST DUP3 MSTORE POP POP JUMP JUMPDEST PUSH1 0x0 PUSH1 0x20 DUP3 ADD SWAP1 POP PUSH2 0x57D PUSH1 0x0 DUP4 ADD DUP5 PUSH2 0x559 JUMP JUMPDEST SWAP3 SWAP2 POP POP JUMP JUMPDEST PUSH1 0x0 PUSH1 0x40 MLOAD SWAP1 POP SWAP1 JUMP JUMPDEST PUSH1 0x0 DUP1 REVERT JUMPDEST PUSH1 0x0 DUP1 REVERT JUMPDEST PUSH1 0x0 DUP1 REVERT JUMPDEST PUSH1 0x0 DUP1 REVERT JUMPDEST PUSH1 0x0 PUSH1 0x1F NOT PUSH1 0x1F DUP4 ADD AND SWAP1 POP SWAP2 SWAP1 POP JUMP JUMPDEST PUSH32 0x4E487B7100000000000000000000000000000000000000000000000000000000 PUSH1 0x0 MSTORE PUSH1 0x41 PUSH1 0x4 MSTORE PUSH1 0x24 PUSH1 0x0 REVERT JUMPDEST PUSH2 0x5EA DUP3 PUSH2 0x5A1 JUMP JUMPDEST DUP2 ADD DUP2 DUP2 LT PUSH8 0xFFFFFFFFFFFFFFFF DUP3 GT OR ISZERO PUSH2 0x609 JUMPI PUSH2 0x608 PUSH2 0x5B2 JUMP JUMPDEST JUMPDEST DUP1 PUSH1 0x40 MSTORE POP POP POP JUMP JUMPDEST PUSH1 0x0 PUSH2 0x61C PUSH2 0x583 JUMP JUMPDEST SWAP1 POP PUSH2 0x628 DUP3 DUP3 PUSH2 0x5E1 JUMP JUMPDEST SWAP2 SWAP1 POP JUMP JUMPDEST PUSH1 0x0 PUSH8 0xFFFFFFFFFFFFFFFF DUP3 GT ISZERO PUSH2 0x648 JUMPI PUSH2 0x647 PUSH2 0x5B2 JUMP JUMPDEST JUMPDEST PUSH2 0x651 DUP3 PUSH2 0x5A1 JUMP JUMPDEST SWAP1 POP PUSH1 0x20 DUP2 ADD SWAP1 POP SWAP2 SWAP1 POP JUMP JUMPDEST DUP3 DUP2 DUP4 CALLDATACOPY PUSH1 0x0 DUP4 DUP4 ADD MSTORE POP POP POP JUMP JUMPDEST PUSH1 0x0 PUSH2 0x680 PUSH2 0x67B DUP5 PUSH2 0x62D JUMP JUMPDEST PUSH2 0x612 JUMP JUMPDEST SWAP1 POP DUP3 DUP2 MSTORE PUSH1 0x20 DUP2 ADD DUP5 DUP5 DUP5 ADD GT ISZERO PUSH2 0x69C JUMPI PUSH2 0x69B PUSH2 0x59C JUMP JUMPDEST JUMPDEST PUSH2 0x6A7 DUP5 DUP3 DUP6 PUSH2 0x65E JUMP JUMPDEST POP SWAP4 SWAP3 POP POP POP JUMP JUMPDEST PUSH1 0x0 DUP3 PUSH1 0x1F DUP4 ADD SLT PUSH2 0x6C4 JUMPI PUSH2 0x6C3 PUSH2 0x597 JUMP JUMPDEST JUMPDEST DUP2 CALLDATALOAD PUSH2 0x6D4 DUP5 DUP3 PUSH1 0x20 DUP7 ADD PUSH2 0x66D JUMP JUMPDEST SWAP2 POP POP SWAP3 SWAP2 POP POP JUMP JUMPDEST PUSH1 0x0 PUSH1 0x20 DUP3 DUP5 SUB SLT ISZERO PUSH2 0x6F3 JUMPI PUSH2 0x6F2 PUSH2 0x58D JUMP JUMPDEST JUMPDEST PUSH1 0x0 DUP3 ADD CALLDATALOAD PUSH8 0xFFFFFFFFFFFFFFFF DUP2 GT ISZERO PUSH2 0x711 JUMPI PUSH2 0x710 PUSH2 0x592 JUMP JUMPDEST JUMPDEST PUSH2 0x71D DUP5 DUP3 DUP6 ADD PUSH2 0x6AF JUMP JUMPDEST SWAP2 POP POP SWAP3 SWAP2 POP POP JUMP JUMPDEST PUSH1 0x0 PUSH20 0xFFFFFFFFFFFFFFFFFFFFFFFFFFFFFFFFFFFFFFFF DUP3 AND SWAP1 POP SWAP2 SWAP1 POP JUMP JUMPDEST PUSH1 0x0 PUSH2 0x751 DUP3 PUSH2 0x726 JUMP JUMPDEST SWAP1 POP SWAP2 SWAP1 POP JUMP JUMPDEST PUSH2 0x761 DUP2 PUSH2 0x746 JUMP JUMPDEST DUP2 EQ PUSH2 0x76C JUMPI PUSH1 0x0 DUP1 REVERT JUMPDEST POP JUMP JUMPDEST PUSH1 0x0 DUP2 CALLDATALOAD SWAP1 POP PUSH2 0x77E DUP2 PUSH2 0x758 JUMP JUMPDEST SWAP3 SWAP2 POP POP JUMP JUMPDEST PUSH2 0x78D DUP2 PUSH2 0x54F JUMP JUMPDEST DUP2 EQ PUSH2 0x798 JUMPI PUSH1 0x0 DUP1 REVERT JUMPDEST POP JUMP JUMPDEST PUSH1 0x0 DUP2 CALLDATALOAD SWAP1 POP PUSH2 0x7AA DUP2 PUSH2 0x784 JUMP JUMPDEST SWAP3 SWAP2 POP POP JUMP JUMPDEST PUSH1 0x0 DUP1 PUSH1 0x40 DUP4 DUP6 SUB SLT ISZERO PUSH2 0x7C7 JUMPI PUSH2 0x7C6 PUSH2 0x58D JUMP JUMPDEST JUMPDEST PUSH1 0x0 PUSH2 0x7D5 DUP6 DUP3 DUP7 ADD PUSH2 0x76F JUMP JUMPDEST SWAP3 POP POP PUSH1 0x20 PUSH2 0x7E6 DUP6 DUP3 DUP7 ADD PUSH2 0x79B JUMP JUMPDEST SWAP2 POP POP SWAP3 POP SWAP3 SWAP1 POP JUMP JUMPDEST PUSH1 0x0 DUP2 MLOAD SWAP1 POP SWAP2 SWAP1 POP JUMP JUMPDEST PUSH1 0x0 DUP3 DUP3 MSTORE PUSH1 0x20 DUP3 ADD SWAP1 POP SWAP3 SWAP2 POP POP JUMP JUMPDEST PUSH1 0x0 JUMPDEST DUP4 DUP2 LT ISZERO PUSH2 0x82A JUMPI DUP1 DUP3 ADD MLOAD DUP2 DUP5 ADD MSTORE PUSH1 0x20 DUP2 ADD SWAP1 POP PUSH2 0x80F JUMP JUMPDEST PUSH1 0x0 DUP5 DUP5 ADD MSTORE POP POP POP POP JUMP JUMPDEST PUSH1 0x0 PUSH2 0x841 DUP3 PUSH2 0x7F0 JUMP JUMPDEST PUSH2 0x84B DUP2 DUP6 PUSH2 0x7FB JUMP JUMPDEST SWAP4 POP PUSH2 0x85B DUP2 DUP6 PUSH1 0x20 DUP7 ADD PUSH2 0x80C JUMP JUMPDEST PUSH2 0x864 DUP2 PUSH2 0x5A1 JUMP JUMPDEST DUP5 ADD SWAP2 POP POP SWAP3 SWAP2 POP POP JUMP JUMPDEST PUSH1 0x0 PUSH1 0x40 DUP3 ADD SWAP1 POP PUSH2 0x884 PUSH1 0x0 DUP4 ADD DUP6 PUSH2 0x559 JUMP JUMPDEST DUP2 DUP2 SUB PUSH1 0x20 DUP4 ADD MSTORE PUSH2 0x896 DUP2 DUP5 PUSH2 0x836 JUMP JUMPDEST SWAP1 POP SWAP4 SWAP3 POP POP POP JUMP JUMPDEST PUSH1 0x0 DUP1 PUSH1 0x0 PUSH1 0x60 DUP5 DUP7 SUB SLT ISZERO PUSH2 0x8B8 JUMPI PUSH2 0x8B7 PUSH2 0x58D JUMP JUMPDEST JUMPDEST PUSH1 0x0 PUSH2 0x8C6 DUP7 DUP3 DUP8 ADD PUSH2 0x76F JUMP JUMPDEST SWAP4 POP POP PUSH1 0x20 PUSH2 0x8D7 DUP7 DUP3 DUP8 ADD PUSH2 0x79B JUMP JUMPDEST SWAP3 POP POP PUSH1 0x40 DUP5 ADD CALLDATALOAD PUSH8 0xFFFFFFFFFFFFFFFF DUP2 GT ISZERO PUSH2 0x8F8 JUMPI PUSH2 0x8F7 PUSH2 0x592 JUMP JUMPDEST JUMPDEST PUSH2 0x904 DUP7 DUP3 DUP8 ADD PUSH2 0x6AF JUMP JUMPDEST SWAP2 POP POP SWAP3 POP SWAP3 POP SWAP3 JUMP JUMPDEST PUSH1 0x0 DUP1 PUSH1 0x40 DUP4 DUP6 SUB SLT ISZERO PUSH2 0x925 JUMPI PUSH2 0x924 PUSH2 0x58D JUMP JUMPDEST JUMPDEST PUSH1 0x0 PUSH2 0x933 DUP6 DUP3 DUP7 ADD PUSH2 0x76F JUMP JUMPDEST SWAP3 POP POP PUSH1 0x20 DUP4 ADD CALLDATALOAD PUSH8 0xFFFFFFFFFFFFFFFF DUP2 GT ISZERO PUSH2 0x954 JUMPI PUSH2 0x953 PUSH2 0x592 JUMP JUMPDEST JUMPDEST PUSH2 0x960 DUP6 DUP3 DUP7 ADD PUSH2 0x6AF JUMP JUMPDEST SWAP2 POP POP SWAP3 POP SWAP3 SWAP1 POP JUMP JUMPDEST PUSH1 0x0 PUSH1 0x20 DUP3 DUP5 SUB SLT ISZERO PUSH2 0x980 JUMPI PUSH2 0x97F PUSH2 0x58D JUMP JUMPDEST JUMPDEST PUSH1 0x0 PUSH2 0x98E DUP5 DUP3 DUP6 ADD PUSH2 0x76F JUMP JUMPDEST SWAP2 POP POP SWAP3 SWAP2 POP POP JUMP JUMPDEST PUSH2 0x9A0 DUP2 PUSH2 0x746 JUMP JUMPDEST DUP3 MSTORE POP POP JUMP JUMPDEST PUSH1 0x0 PUSH1 0x40 DUP3 ADD SWAP1 POP PUSH2 0x9BB PUSH1 0x0 DUP4 ADD DUP6 PUSH2 0x997 JUMP JUMPDEST DUP2 DUP2 SUB PUSH1 0x20 DUP4 ADD MSTORE PUSH2 0x9CD DUP2 DUP5 PUSH2 0x836 JUMP JUMPDEST SWAP1 POP SWAP4 SWAP3 POP POP POP JUMP JUMPDEST PUSH32 0x4E487B7100000000000000000000000000000000000000000000000000000000 PUSH1 0x0 MSTORE PUSH1 0x22 PUSH1 0x4 MSTORE PUSH1 0x24 PUSH1 0x0 REVERT JUMPDEST PUSH1 0x0 PUSH1 0x2 DUP3 DIV SWAP1 POP PUSH1 0x1 DUP3 AND DUP1 PUSH2 0xA1D JUMPI PUSH1 0x7F DUP3 AND SWAP2 POP JUMPDEST PUSH1 0x20 DUP3 LT DUP2 SUB PUSH2 0xA30 JUMPI PUSH2 0xA2F PUSH2 0x9D6 JUMP JUMPDEST JUMPDEST POP SWAP2 SWAP1 POP JUMP JUMPDEST PUSH1 0x0 DUP2 SWAP1 POP DUP2 PUSH1 0x0 MSTORE PUSH1 0x20 PUSH1 0x0 KECCAK256 SWAP1 POP SWAP2 SWAP1 POP JUMP JUMPDEST PUSH1 0x0 PUSH1 0x20 PUSH1 0x1F DUP4 ADD DIV SWAP1 POP SWAP2 SWAP1 POP JUMP JUMPDEST PUSH1 0x0 DUP3 DUP3 SHL SWAP1 POP SWAP3 SWAP2 POP POP JUMP JUMPDEST PUSH1 0x0 PUSH1 0x8 DUP4 MUL PUSH2 0xA98 PUSH32 0xFFFFFFFFFFFFFFFFFFFFFFFFFFFFFFFFFFFFFFFFFFFFFFFFFFFFFFFFFFFFFFFF DUP3 PUSH2 0xA5B JUMP JUMPDEST PUSH2 0xAA2 DUP7 DUP4 PUSH2 0xA5B JUMP JUMPDEST SWAP6 POP DUP1 NOT DUP5 AND SWAP4 POP DUP1 DUP7 AND DUP5 OR SWAP3 POP POP POP SWAP4 SWAP3 POP POP POP JUMP JUMPDEST PUSH1 0x0 DUP2 SWAP1 POP SWAP2 SWAP1 POP JUMP JUMPDEST PUSH1 0x0 PUSH2 0xADF PUSH2 0xADA PUSH2 0xAD5 DUP5 PUSH2 0x54F JUMP JUMPDEST PUSH2 0xABA JUMP JUMPDEST PUSH2 0x54F JUMP JUMPDEST SWAP1 POP SWAP2 SWAP1 POP JUMP JUMPDEST PUSH1 0x0 DUP2 SWAP1 POP SWAP2 SWAP1 POP JUMP JUMPDEST PUSH2 0xAF9 DUP4 PUSH2 0xAC4 JUMP JUMPDEST PUSH2 0xB0D PUSH2 0xB05 DUP3 PUSH2 0xAE6 JUMP JUMPDEST DUP5 DUP5 SLOAD PUSH2 0xA68 JUMP JUMPDEST DUP3 SSTORE POP POP POP POP JUMP JUMPDEST PUSH1 0x0 SWAP1 JUMP JUMPDEST PUSH2 0xB22 PUSH2 0xB15 JUMP JUMPDEST PUSH2 0xB2D DUP2 DUP5 DUP5 PUSH2 0xAF0 JUMP JUMPDEST POP POP POP JUMP JUMPDEST JUMPDEST DUP2 DUP2 LT ISZERO PUSH2 0xB51 JUMPI PUSH2 0xB46 PUSH1 0x0 DUP3 PUSH2 0xB1A JUMP JUMPDEST PUSH1 0x1 DUP2 ADD SWAP1 POP PUSH2 0xB33 JUMP JUMPDEST POP POP JUMP JUMPDEST PUSH1 0x1F DUP3 GT ISZERO PUSH2 0xB96 JUMPI PUSH2 0xB67 DUP2 PUSH2 0xA36 JUMP JUMPDEST PUSH2 0xB70 DUP5 PUSH2 0xA4B JUMP JUMPDEST DUP2 ADD PUSH1 0x20 DUP6 LT ISZERO PUSH2 0xB7F JUMPI DUP2 SWAP1 POP JUMPDEST PUSH2 0xB93 PUSH2 0xB8B DUP6 PUSH2 0xA4B JUMP JUMPDEST DUP4 ADD DUP3 PUSH2 0xB32 JUMP JUMPDEST POP POP JUMPDEST POP POP POP JUMP JUMPDEST PUSH1 0x0 DUP3 DUP3 SHR SWAP1 POP SWAP3 SWAP2 POP POP JUMP JUMPDEST PUSH1 0x0 PUSH2 0xBB9 PUSH1 0x0 NOT DUP5 PUSH1 0x8 MUL PUSH2 0xB9B JUMP JUMPDEST NOT DUP1 DUP4 AND SWAP2 POP POP SWAP3 SWAP2 POP POP JUMP JUMPDEST PUSH1 0x0 PUSH2 0xBD2 DUP4 DUP4 PUSH2 0xBA8 JUMP JUMPDEST SWAP2 POP DUP3 PUSH1 0x2 MUL DUP3 OR SWAP1 POP SWAP3 SWAP2 POP POP JUMP JUMPDEST PUSH2 0xBEB DUP3 PUSH2 0x7F0 JUMP JUMPDEST PUSH8 0xFFFFFFFFFFFFFFFF DUP2 GT ISZERO PUSH2 0xC04 JUMPI PUSH2 0xC03 PUSH2 0x5B2 JUMP JUMPDEST JUMPDEST PUSH2 0xC0E DUP3 SLOAD PUSH2 0xA05 JUMP JUMPDEST PUSH2 0xC19 DUP3 DUP3 DUP6 PUSH2 0xB55 JUMP JUMPDEST PUSH1 0x0 PUSH1 0x20 SWAP1 POP PUSH1 0x1F DUP4 GT PUSH1 0x1 DUP2 EQ PUSH2 0xC4C JUMPI PUSH1 0x0 DUP5 ISZERO PUSH2 0xC3A JUMPI DUP3 DUP8 ADD MLOAD SWAP1 POP JUMPDEST PUSH2 0xC44 DUP6 DUP3 PUSH2 0xBC6 JUMP JUMPDEST DUP7 SSTORE POP PUSH2 0xCAC JUMP JUMPDEST PUSH1 0x1F NOT DUP5 AND PUSH2 0xC5A DUP7 PUSH2 0xA36 JUMP JUMPDEST PUSH1 0x0 JUMPDEST DUP3 DUP2 LT ISZERO PUSH2 0xC82 JUMPI DUP5 DUP10 ADD MLOAD DUP3 SSTORE PUSH1 0x1 DUP3 ADD SWAP2 POP PUSH1 0x20 DUP6 ADD SWAP5 POP PUSH1 0x20 DUP2 ADD SWAP1 POP PUSH2 0xC5D JUMP JUMPDEST DUP7 DUP4 LT ISZERO PUSH2 0xC9F JUMPI DUP5 DUP10 ADD MLOAD PUSH2 0xC9B PUSH1 0x1F DUP10 AND DUP3 PUSH2 0xBA8 JUMP JUMPDEST DUP4 SSTORE POP JUMPDEST PUSH1 0x1 PUSH1 0x2 DUP9 MUL ADD DUP9 SSTORE POP POP POP JUMPDEST POP POP POP POP POP POP JUMP JUMPDEST PUSH32 0x4E487B7100000000000000000000000000000000000000000000000000000000 PUSH1 0x0 MSTORE PUSH1 0x11 PUSH1 0x4 MSTORE PUSH1 0x24 PUSH1 0x0 REVERT JUMPDEST PUSH1 0x0 PUSH2 0xCEE DUP3 PUSH2 0x54F JUMP JUMPDEST SWAP2 POP PUSH32 0xFFFFFFFFFFFFFFFFFFFFFFFFFFFFFFFFFFFFFFFFFFFFFFFFFFFFFFFFFFFFFFFF DUP3 SUB PUSH2 0xD20 JUMPI PUSH2 0xD1F PUSH2 0xCB4 JUMP JUMPDEST JUMPDEST PUSH1 0x1 DUP3 ADD SWAP1 POP SWAP2 SWAP1 POP JUMP JUMPDEST PUSH32 0x4E487B7100000000000000000000000000000000000000000000000000000000 PUSH1 0x0 MSTORE PUSH1 0x32 PUSH1 0x4 MSTORE PUSH1 0x24 PUSH1 0x0 REVERT JUMPDEST PUSH1 0x0 PUSH2 0xD65 DUP3 PUSH2 0x54F JUMP JUMPDEST SWAP2 POP PUSH2 0xD70 DUP4 PUSH2 0x54F JUMP JUMPDEST SWAP3 POP DUP3 DUP3 ADD SWAP1 POP DUP1 DUP3 GT ISZERO PUSH2 0xD88 JUMPI PUSH2 0xD87 PUSH2 0xCB4 JUMP JUMPDEST JUMPDEST SWAP3 SWAP2 POP POP JUMP INVALID LOG2 PUSH5 0x6970667358 0x22 SLT KECCAK256 0x25 SDIV 0x4B PUSH21 0x745FAFA41976867C3666DADB4834D0E90CEE3370DF DUP11 0xA8 0xAD PUSH32 0x439F9864736F6C63430008120033000000000000000000000000000000000000 "
		},
		"gasEstimates": {
			"creation": {
				"codeDepositCost": "704800",
				"executionCost": "741",
				"totalCost": "705541"
			},
			"external": {
				"addPrescription(address,string)": "infinite",
				"addUser(string)": "infinite",
				"prescriptionCount()": "2495",
				"prescriptions(address,uint256)": "infinite",
				"updatePrescription(address,uint256,string)": "infinite",
				"userCount()": "2430",
				"users(address)": "infinite"
			}
		},
		"methodIdentifiers": {
			"addPrescription(address,string)": "a3e12bc0",
			"addUser(string)": "18b8275a",
			"prescriptionCount()": "b6558498",
			"prescriptions(address,uint256)": "64148056",
			"updatePrescription(address,uint256,string)": "81627237",
			"userCount()": "07973ccf",
			"users(address)": "a87430ba"
		}
	},
	"abi": [
		{
			"inputs": [
				{
					"internalType": "address",
					"name": "userId",
					"type": "address"
				},
				{
					"internalType": "string",
					"name": "diagnosis",
					"type": "string"
				}
			],
			"name": "addPrescription",
			"outputs": [],
			"stateMutability": "nonpayable",
			"type": "function"
		},
		{
			"inputs": [
				{
					"internalType": "string",
					"name": "name",
					"type": "string"
				}
			],
			"name": "addUser",
			"outputs": [],
			"stateMutability": "nonpayable",
			"type": "function"
		},
		{
			"inputs": [],
			"name": "prescriptionCount",
			"outputs": [
				{
					"internalType": "uint256",
					"name": "",
					"type": "uint256"
				}
			],
			"stateMutability": "view",
			"type": "function"
		},
		{
			"inputs": [
				{
					"internalType": "address",
					"name": "",
					"type": "address"
				},
				{
					"internalType": "uint256",
					"name": "",
					"type": "uint256"
				}
			],
			"name": "prescriptions",
			"outputs": [
				{
					"internalType": "uint256",
					"name": "id",
					"type": "uint256"
				},
				{
					"internalType": "string",
					"name": "diagnosis",
					"type": "string"
				}
			],
			"stateMutability": "view",
			"type": "function"
		},
		{
			"inputs": [
				{
					"internalType": "address",
					"name": "userId",
					"type": "address"
				},
				{
					"internalType": "uint256",
					"name": "prescriptionId",
					"type": "uint256"
				},
				{
					"internalType": "string",
					"name": "diagnosis",
					"type": "string"
				}
			],
			"name": "updatePrescription",
			"outputs": [],
			"stateMutability": "nonpayable",
			"type": "function"
		},
		{
			"inputs": [],
			"name": "userCount",
			"outputs": [
				{
					"internalType": "uint256",
					"name": "",
					"type": "uint256"
				}
			],
			"stateMutability": "view",
			"type": "function"
		},
		{
			"inputs": [
				{
					"internalType": "address",
					"name": "",
					"type": "address"
				}
			],
			"name": "users",
			"outputs": [
				{
					"internalType": "address",
					"name": "id",
					"type": "address"
				},
				{
					"internalType": "string",
					"name": "name",
					"type": "string"
				}
			],
			"stateMutability": "view",
			"type": "function"
		}
	]
}